{
  "contractName": "TodoList",
  "abi": [
    {
      "anonymous": false,
      "inputs": [
        {
          "indexed": false,
          "name": "_from",
          "type": "address"
        },
        {
          "components": [
            {
              "name": "name",
              "type": "string"
            },
            {
              "name": "isComplete",
              "type": "bool"
            }
          ],
          "indexed": false,
          "name": "todos",
          "type": "tuple[]"
        }
      ],
      "name": "CompleteTodo",
      "type": "event"
    },
    {
      "constant": false,
      "inputs": [
        {
          "name": "_name",
          "type": "string"
        }
      ],
      "name": "_add",
      "outputs": [
        {
          "name": "",
          "type": "string"
        }
      ],
      "payable": false,
      "stateMutability": "nonpayable",
      "type": "function"
    },
    {
      "constant": true,
      "inputs": [],
      "name": "_getList",
      "outputs": [
        {
          "components": [
            {
              "name": "name",
              "type": "string"
            },
            {
              "name": "isComplete",
              "type": "bool"
            }
          ],
          "name": "",
          "type": "tuple[]"
        }
      ],
      "payable": false,
      "stateMutability": "view",
      "type": "function"
    },
    {
      "constant": false,
      "inputs": [],
      "name": "_clear",
      "outputs": [
        {
          "name": "",
          "type": "bool"
        }
      ],
      "payable": false,
      "stateMutability": "nonpayable",
      "type": "function"
    },
    {
      "constant": true,
      "inputs": [
        {
          "name": "_id",
          "type": "uint256"
        }
      ],
      "name": "_getTodo",
      "outputs": [
        {
          "components": [
            {
              "name": "name",
              "type": "string"
            },
            {
              "name": "isComplete",
              "type": "bool"
            }
          ],
          "name": "",
          "type": "tuple"
        }
      ],
      "payable": false,
      "stateMutability": "view",
      "type": "function"
    },
    {
      "constant": false,
      "inputs": [
        {
          "name": "_id",
          "type": "uint256"
        }
      ],
      "name": "_completeTodo",
      "outputs": [
        {
          "name": "",
          "type": "bool"
        }
      ],
      "payable": false,
      "stateMutability": "nonpayable",
      "type": "function"
    }
  ],
  "bytecode": "0x608060405234801561001057600080fd5b50610e3c806100206000396000f3fe608060405234801561001057600080fd5b50600436106100575760003560e01c80630962f8691461005c57806362a55ec91461007a5780639078ac2e1461009857806395da00fa146100c8578063c3446724146100f8575b600080fd5b610064610128565b6040516100719190610b74565b60405180910390f35b610082610283565b60405161008f9190610b96565b60405180910390f35b6100b260048036036100ad9190810190610819565b61036d565b6040516100bf9190610bd3565b60405180910390f35b6100e260048036036100dd9190810190610819565b61049e565b6040516100ef9190610b96565b60405180910390f35b610112600480360361010d91908101906107d8565b610598565b60405161011f9190610bb1565b60405180910390f35b60606000803373ffffffffffffffffffffffffffffffffffffffff1673ffffffffffffffffffffffffffffffffffffffff168152602001908152602001600020600001805480602002602001604051908101604052809291908181526020016000905b8282101561027a5783829060005260206000209060020201604051806040016040529081600082018054600181600116156101000203166002900480601f0160208091040260200160405190810160405280929190818152602001828054600181600116156101000203166002900480156102475780601f1061021c57610100808354040283529160200191610247565b820191906000526020600020905b81548152906001019060200180831161022a57829003601f168201915b505050505081526020016001820160009054906101000a900460ff1615151515815250508152602001906001019061018b565b50505050905090565b600080600090505b6000803373ffffffffffffffffffffffffffffffffffffffff1673ffffffffffffffffffffffffffffffffffffffff16815260200190815260200160002060000180549050811015610365576000803373ffffffffffffffffffffffffffffffffffffffff1673ffffffffffffffffffffffffffffffffffffffff168152602001908152602001600020600001818154811061032357fe5b9060005260206000209060020201600080820160006103429190610666565b6001820160006101000a81549060ff02191690555050808060010191505061028b565b506001905090565b6103756106ae565b6000803373ffffffffffffffffffffffffffffffffffffffff1673ffffffffffffffffffffffffffffffffffffffff16815260200190815260200160002060000182815481106103c157fe5b9060005260206000209060020201604051806040016040529081600082018054600181600116156101000203166002900480601f0160208091040260200160405190810160405280929190818152602001828054600181600116156101000203166002900480156104735780601f1061044857610100808354040283529160200191610473565b820191906000526020600020905b81548152906001019060200180831161045657829003601f168201915b505050505081526020016001820160009054906101000a900460ff1615151515815250509050919050565b60007feaf77a1d8e9999eb8b829ea21b50bf3da36b00e9495d39a2ed28be5334381b31336000803373ffffffffffffffffffffffffffffffffffffffff1673ffffffffffffffffffffffffffffffffffffffff168152602001908152602001600020600001604051610511929190610b44565b60405180910390a160016000803373ffffffffffffffffffffffffffffffffffffffff1673ffffffffffffffffffffffffffffffffffffffff168152602001908152602001600020600001838154811061056757fe5b906000526020600020906002020160010160006101000a81548160ff02191690831515021790555060019050919050565b60606000803373ffffffffffffffffffffffffffffffffffffffff1673ffffffffffffffffffffffffffffffffffffffff16815260200190815260200160002060000160405180604001604052808481526020016000151581525090806001815401808255809150509060018203906000526020600020906002020160009091929091909150600082015181600001908051906020019061063a9291906106ca565b5060208201518160010160006101000a81548160ff021916908315150217905550505050819050919050565b50805460018160011615610100020316600290046000825580601f1061068c57506106ab565b601f0160209004906000526020600020908101906106aa919061074a565b5b50565b6040518060400160405280606081526020016000151581525090565b828054600181600116156101000203166002900490600052602060002090601f016020900481019282601f1061070b57805160ff1916838001178555610739565b82800160010185558215610739579182015b8281111561073857825182559160200191906001019061071d565b5b509050610746919061074a565b5090565b61076c91905b80821115610768576000816000905550600101610750565b5090565b90565b600082601f83011261078057600080fd5b813561079361078e82610c22565b610bf5565b915080825260208301602083018583830111156107af57600080fd5b6107ba838284610d71565b50505092915050565b6000813590506107d281610deb565b92915050565b6000602082840312156107ea57600080fd5b600082013567ffffffffffffffff81111561080457600080fd5b6108108482850161076f565b91505092915050565b60006020828403121561082b57600080fd5b6000610839848285016107c3565b91505092915050565b600061084e8383610abe565b905092915050565b60006108628383610afb565b905092915050565b61087381610d3b565b82525050565b600061088482610c7f565b61088e8185610cc5565b9350836020820285016108a085610c4e565b8060005b858110156108dc57848403895281516108bd8582610842565b94506108c883610cab565b925060208a019950506001810190506108a4565b50829750879550505050505092915050565b60006108f982610c8a565b6109038185610cc5565b93508360208202850161091585610c5b565b8060005b85811015610950578484038952816109318582610856565b945061093c83610cb8565b925060208a01995050600181019050610919565b50829750879550505050505092915050565b61096b81610d05565b82525050565b61097a81610d05565b82525050565b600061098b82610ca0565b6109958185610ce7565b93506109a5818560208601610d80565b6109ae81610dcd565b840191505092915050565b60006109c482610c95565b6109ce8185610cd6565b93506109de818560208601610d80565b6109e781610dcd565b840191505092915050565b600081546001811660008114610a0f5760018114610a3557610a79565b607f6002830416610a208187610cd6565b955060ff198316865260208601935050610a79565b60028204610a438187610cd6565b9550610a4e85610c6d565b60005b82811015610a7057815481890152600182019150602081019050610a51565b80880195505050505b505092915050565b60006040830160008301518482036000860152610a9e82826109b9565b9150506020830151610ab36020860182610962565b508091505092915050565b60006040830160008301518482036000860152610adb82826109b9565b9150506020830151610af06020860182610962565b508091505092915050565b60006040830160008084018583036000870152610b1883826109f2565b92505060018401549050610b2b81610db3565b610b386020870182610962565b50819250505092915050565b6000604082019050610b59600083018561086a565b8181036020830152610b6b81846108ee565b90509392505050565b60006020820190508181036000830152610b8e8184610879565b905092915050565b6000602082019050610bab6000830184610971565b92915050565b60006020820190508181036000830152610bcb8184610980565b905092915050565b60006020820190508181036000830152610bed8184610a81565b905092915050565b6000604051905081810181811067ffffffffffffffff82111715610c1857600080fd5b8060405250919050565b600067ffffffffffffffff821115610c3957600080fd5b601f19601f8301169050602081019050919050565b6000602082019050919050565b60008160005260206000209050919050565b60008160005260206000209050919050565b600081519050919050565b600081549050919050565b600081519050919050565b600081519050919050565b6000602082019050919050565b6000600182019050919050565b600082825260208201905092915050565b600082825260208201905092915050565b600082825260208201905092915050565b600060ff82169050919050565b60008115159050919050565b600073ffffffffffffffffffffffffffffffffffffffff82169050919050565b6000819050919050565b6000610d4682610d4d565b9050919050565b6000610d5882610d5f565b9050919050565b6000610d6a82610d11565b9050919050565b82818337600083830152505050565b60005b83811015610d9e578082015181840152602081019050610d83565b83811115610dad576000848401525b50505050565b6000610dc6610dc183610dde565b610cf8565b9050919050565b6000601f19601f8301169050919050565b60008160001c9050919050565b610df481610d31565b8114610dff57600080fd5b5056fea265627a7a72305820606d626018f0ee143b3671847bc7d5807f206e63952791414b4515f8a7c217206c6578706572696d656e74616cf50037",
  "source": "pragma solidity ^0.5.0;\npragma experimental ABIEncoderV2;\n\ncontract TodoList {\n    mapping (address => List) listOwner;\n    event CompleteTodo(address _from, Todo[] todos);\n\n    struct Todo {\n        string name;\n        bool isComplete;\n    }\n\n    struct List {\n        Todo[] list;\n    }\n\n\n    function _add(string memory _name) public returns (string memory) {\n        listOwner[msg.sender].list.push(Todo(_name, false));\n        return _name;\n    }\n\n    function _getList() public view returns (Todo[] memory) {\n        return listOwner[msg.sender].list;\n    }\n\n    function _clear() public returns (bool) {\n        for (uint i = 0; i < listOwner[msg.sender].list.length; i++) {\n            delete listOwner[msg.sender].list[i];\n        }\n        return true;\n    }\n\n    function _getTodo(uint _id) public view returns (Todo memory) {\n        return listOwner[msg.sender].list[_id];\n    }\n\n    function _completeTodo(uint _id) public returns (bool) {\n        emit CompleteTodo(msg.sender, listOwner[msg.sender].list);\n        listOwner[msg.sender].list[_id].isComplete = true;\n        return true;\n    }\n}",
  "sourcePath": "/Users/artiumsirchenko/Dropbox/coding/learning/school_projects/blockchain/todo-list/contracts/TodoList.sol",
  "compiler": {
    "name": "solc",
    "version": "0.5.8+commit.23d335f2.Emscripten.clang"
  },
  "schemaVersion": "3.0.12",
  "updatedAt": "2019-08-23T15:40:54.315Z",
  "devdoc": {
    "methods": {}
  },
  "userdoc": {
    "methods": {}
  }
}