{
  "contractName": "TodoList",
  "abi": [
    {
      "anonymous": false,
      "inputs": [
        {
          "indexed": false,
          "name": "_from",
          "type": "address"
        },
        {
          "components": [
            {
              "name": "name",
              "type": "string"
            },
            {
              "name": "isComplete",
              "type": "bool"
            }
          ],
          "indexed": false,
          "name": "todos",
          "type": "tuple[]"
        }
      ],
      "name": "CompleteTodo",
      "type": "event"
    },
    {
      "constant": false,
      "inputs": [
        {
          "name": "_name",
          "type": "string"
        }
      ],
      "name": "_add",
      "outputs": [
        {
          "name": "",
          "type": "string"
        }
      ],
      "payable": false,
      "stateMutability": "nonpayable",
      "type": "function"
    },
    {
      "constant": true,
      "inputs": [],
      "name": "_getList",
      "outputs": [
        {
          "components": [
            {
              "name": "name",
              "type": "string"
            },
            {
              "name": "isComplete",
              "type": "bool"
            }
          ],
          "name": "",
          "type": "tuple[]"
        }
      ],
      "payable": false,
      "stateMutability": "view",
      "type": "function"
    },
    {
      "constant": false,
      "inputs": [],
      "name": "_clear",
      "outputs": [
        {
          "name": "",
          "type": "bool"
        }
      ],
      "payable": false,
      "stateMutability": "nonpayable",
      "type": "function"
    },
    {
      "constant": true,
      "inputs": [
        {
          "name": "_id",
          "type": "uint256"
        }
      ],
      "name": "_getTodo",
      "outputs": [
        {
          "components": [
            {
              "name": "name",
              "type": "string"
            },
            {
              "name": "isComplete",
              "type": "bool"
            }
          ],
          "name": "",
          "type": "tuple"
        }
      ],
      "payable": false,
      "stateMutability": "view",
      "type": "function"
    },
    {
      "constant": false,
      "inputs": [
        {
          "name": "_id",
          "type": "uint256"
        }
      ],
      "name": "_completeTodo",
      "outputs": [
        {
          "components": [
            {
              "name": "name",
              "type": "string"
            },
            {
              "name": "isComplete",
              "type": "bool"
            }
          ],
          "name": "",
          "type": "tuple[]"
        }
      ],
      "payable": false,
      "stateMutability": "nonpayable",
      "type": "function"
    }
  ],
  "bytecode": "0x608060405234801561001057600080fd5b50611180806100206000396000f3fe608060405234801561001057600080fd5b50600436106100575760003560e01c80630962f8691461005c57806362a55ec91461007a5780639078ac2e1461009857806395da00fa146100c8578063c3446724146100f8575b600080fd5b610064610128565b6040516100719190610e78565b60405180910390f35b61008261030a565b60405161008f9190610e9a565b60405180910390f35b6100b260048036036100ad9190810190610a9d565b6103f4565b6040516100bf9190610f17565b60405180910390f35b6100e260048036036100dd9190810190610a9d565b610525565b6040516100ef9190610e78565b60405180910390f35b610112600480360361010d9190810190610a5c565b61081c565b60405161011f9190610eb5565b60405180910390f35b606060008060003373ffffffffffffffffffffffffffffffffffffffff1673ffffffffffffffffffffffffffffffffffffffff16815260200190815260200160002060000180549050146101b1576040517f08c379a00000000000000000000000000000000000000000000000000000000081526004016101a890610ef7565b60405180910390fd5b6000803373ffffffffffffffffffffffffffffffffffffffff1673ffffffffffffffffffffffffffffffffffffffff168152602001908152602001600020600001805480602002602001604051908101604052809291908181526020016000905b828210156103015783829060005260206000209060020201604051806040016040529081600082018054600181600116156101000203166002900480601f0160208091040260200160405190810160405280929190818152602001828054600181600116156101000203166002900480156102ce5780601f106102a3576101008083540402835291602001916102ce565b820191906000526020600020905b8154815290600101906020018083116102b157829003601f168201915b505050505081526020016001820160009054906101000a900460ff16151515158152505081526020019060010190610212565b50505050905090565b600080600090505b6000803373ffffffffffffffffffffffffffffffffffffffff1673ffffffffffffffffffffffffffffffffffffffff168152602001908152602001600020600001805490508110156103ec576000803373ffffffffffffffffffffffffffffffffffffffff1673ffffffffffffffffffffffffffffffffffffffff16815260200190815260200160002060000181815481106103aa57fe5b9060005260206000209060020201600080820160006103c991906108ea565b6001820160006101000a81549060ff021916905550508080600101915050610312565b506001905090565b6103fc610932565b6000803373ffffffffffffffffffffffffffffffffffffffff1673ffffffffffffffffffffffffffffffffffffffff168152602001908152602001600020600001828154811061044857fe5b9060005260206000209060020201604051806040016040529081600082018054600181600116156101000203166002900480601f0160208091040260200160405190810160405280929190818152602001828054600181600116156101000203166002900480156104fa5780601f106104cf576101008083540402835291602001916104fa565b820191906000526020600020905b8154815290600101906020018083116104dd57829003601f168201915b505050505081526020016001820160009054906101000a900460ff1615151515815250509050919050565b60606000803373ffffffffffffffffffffffffffffffffffffffff1673ffffffffffffffffffffffffffffffffffffffff168152602001908152602001600020600001828154811061057357fe5b906000526020600020906002020160010160009054906101000a900460ff16156105d2576040517f08c379a00000000000000000000000000000000000000000000000000000000081526004016105c990610ed7565b60405180910390fd5b60016000803373ffffffffffffffffffffffffffffffffffffffff1673ffffffffffffffffffffffffffffffffffffffff168152602001908152602001600020600001838154811061062057fe5b906000526020600020906002020160010160006101000a81548160ff0219169083151502179055507feaf77a1d8e9999eb8b829ea21b50bf3da36b00e9495d39a2ed28be5334381b31336000803373ffffffffffffffffffffffffffffffffffffffff1673ffffffffffffffffffffffffffffffffffffffff1681526020019081526020016000206000016040516106b9929190610e48565b60405180910390a16000803373ffffffffffffffffffffffffffffffffffffffff1673ffffffffffffffffffffffffffffffffffffffff168152602001908152602001600020600001805480602002602001604051908101604052809291908181526020016000905b828210156108115783829060005260206000209060020201604051806040016040529081600082018054600181600116156101000203166002900480601f0160208091040260200160405190810160405280929190818152602001828054600181600116156101000203166002900480156107de5780601f106107b3576101008083540402835291602001916107de565b820191906000526020600020905b8154815290600101906020018083116107c157829003601f168201915b505050505081526020016001820160009054906101000a900460ff16151515158152505081526020019060010190610722565b505050509050919050565b60606000803373ffffffffffffffffffffffffffffffffffffffff1673ffffffffffffffffffffffffffffffffffffffff1681526020019081526020016000206000016040518060400160405280848152602001600015158152509080600181540180825580915050906001820390600052602060002090600202016000909192909190915060008201518160000190805190602001906108be92919061094e565b5060208201518160010160006101000a81548160ff021916908315150217905550505050819050919050565b50805460018160011615610100020316600290046000825580601f10610910575061092f565b601f01602090049060005260206000209081019061092e91906109ce565b5b50565b6040518060400160405280606081526020016000151581525090565b828054600181600116156101000203166002900490600052602060002090601f016020900481019282601f1061098f57805160ff19168380011785556109bd565b828001600101855582156109bd579182015b828111156109bc5782518255916020019190600101906109a1565b5b5090506109ca91906109ce565b5090565b6109f091905b808211156109ec5760008160009055506001016109d4565b5090565b90565b600082601f830112610a0457600080fd5b8135610a17610a1282610f66565b610f39565b91508082526020830160208301858383011115610a3357600080fd5b610a3e8382846110b5565b50505092915050565b600081359050610a568161112f565b92915050565b600060208284031215610a6e57600080fd5b600082013567ffffffffffffffff811115610a8857600080fd5b610a94848285016109f3565b91505092915050565b600060208284031215610aaf57600080fd5b6000610abd84828501610a47565b91505092915050565b6000610ad28383610dc2565b905092915050565b6000610ae68383610dff565b905092915050565b610af78161107f565b82525050565b6000610b0882610fc3565b610b128185611009565b935083602082028501610b2485610f92565b8060005b85811015610b605784840389528151610b418582610ac6565b9450610b4c83610fef565b925060208a01995050600181019050610b28565b50829750879550505050505092915050565b6000610b7d82610fce565b610b878185611009565b935083602082028501610b9985610f9f565b8060005b85811015610bd457848403895281610bb58582610ada565b9450610bc083610ffc565b925060208a01995050600181019050610b9d565b50829750879550505050505092915050565b610bef81611049565b82525050565b610bfe81611049565b82525050565b6000610c0f82610fe4565b610c19818561102b565b9350610c298185602086016110c4565b610c3281611111565b840191505092915050565b6000610c4882610fd9565b610c52818561101a565b9350610c628185602086016110c4565b610c6b81611111565b840191505092915050565b600081546001811660008114610c935760018114610cb957610cfd565b607f6002830416610ca4818761101a565b955060ff198316865260208601935050610cfd565b60028204610cc7818761101a565b9550610cd285610fb1565b60005b82811015610cf457815481890152600182019150602081019050610cd5565b80880195505050505b505092915050565b6000610d1260128361102b565b91507f546f646f2077617320636f6d706c6574656400000000000000000000000000006000830152602082019050919050565b6000610d52600d8361102b565b91507f4e6f206c69737420666f756e64000000000000000000000000000000000000006000830152602082019050919050565b60006040830160008301518482036000860152610da28282610c3d565b9150506020830151610db76020860182610be6565b508091505092915050565b60006040830160008301518482036000860152610ddf8282610c3d565b9150506020830151610df46020860182610be6565b508091505092915050565b60006040830160008084018583036000870152610e1c8382610c76565b92505060018401549050610e2f816110f7565b610e3c6020870182610be6565b50819250505092915050565b6000604082019050610e5d6000830185610aee565b8181036020830152610e6f8184610b72565b90509392505050565b60006020820190508181036000830152610e928184610afd565b905092915050565b6000602082019050610eaf6000830184610bf5565b92915050565b60006020820190508181036000830152610ecf8184610c04565b905092915050565b60006020820190508181036000830152610ef081610d05565b9050919050565b60006020820190508181036000830152610f1081610d45565b9050919050565b60006020820190508181036000830152610f318184610d85565b905092915050565b6000604051905081810181811067ffffffffffffffff82111715610f5c57600080fd5b8060405250919050565b600067ffffffffffffffff821115610f7d57600080fd5b601f19601f8301169050602081019050919050565b6000602082019050919050565b60008160005260206000209050919050565b60008160005260206000209050919050565b600081519050919050565b600081549050919050565b600081519050919050565b600081519050919050565b6000602082019050919050565b6000600182019050919050565b600082825260208201905092915050565b600082825260208201905092915050565b600082825260208201905092915050565b600060ff82169050919050565b60008115159050919050565b600073ffffffffffffffffffffffffffffffffffffffff82169050919050565b6000819050919050565b600061108a82611091565b9050919050565b600061109c826110a3565b9050919050565b60006110ae82611055565b9050919050565b82818337600083830152505050565b60005b838110156110e25780820151818401526020810190506110c7565b838111156110f1576000848401525b50505050565b600061110a61110583611122565b61103c565b9050919050565b6000601f19601f8301169050919050565b60008160001c9050919050565b61113881611075565b811461114357600080fd5b5056fea265627a7a72305820b17163f3b39cc5b9265b742f9e1a0a5fa7c185a3647153887d8672336f8932e76c6578706572696d656e74616cf50037",
  "source": "pragma solidity ^0.5.0;\npragma experimental ABIEncoderV2;\n\ncontract TodoList {\n    mapping (address => List) listOwner;\n    event CompleteTodo(address _from, Todo[] todos);\n\n    struct Todo {\n        string name;\n        bool isComplete;\n    }\n\n    struct List {\n        Todo[] list;\n    }\n\n\n    function _add(string memory _name) public returns (string memory) {\n        listOwner[msg.sender].list.push(Todo(_name, false));\n        return _name;\n    }\n\n    function _getList() public view returns (Todo[] memory) {\n        require(listOwner[msg.sender].list.length == 0, \"No list found\");\n        return listOwner[msg.sender].list;\n    }\n\n    function _clear() public returns (bool) {\n        for (uint i = 0; i < listOwner[msg.sender].list.length; i++) {\n            delete listOwner[msg.sender].list[i];\n        }\n        return true;\n    }\n\n    function _getTodo(uint _id) public view returns (Todo memory) {\n        return listOwner[msg.sender].list[_id];\n    }\n\n    function _completeTodo(uint _id) public returns (Todo[] memory) {\n        require(!listOwner[msg.sender].list[_id].isComplete, \"Todo was completed\");\n\n        listOwner[msg.sender].list[_id].isComplete = true;\n        emit CompleteTodo(msg.sender, listOwner[msg.sender].list);\n        return listOwner[msg.sender].list;\n    }\n}",
  "sourcePath": "/Users/artiumsirchenko/Dropbox/coding/learning/school_projects/blockchain/todo-list/contracts/TodoList.sol",
  "compiler": {
    "name": "solc",
    "version": "0.5.8+commit.23d335f2.Emscripten.clang"
  },
  "schemaVersion": "3.0.12",
  "updatedAt": "2019-08-23T17:49:27.162Z",
  "devdoc": {
    "methods": {}
  },
  "userdoc": {
    "methods": {}
  }
}